:100000000C9449000C9466000C9466000C946600F5
:100010000C9466000C9466000C9466000C946600C8
:100020000C9466000C9466000C9466000C946600B8
:100030000C9466000C9466000C9466000C946600A8
:100040000C9466000C948D100C9466000C94660061
:100050000C9466000C9466000C9466000C94660088
:100060000C9466000C9466000C9466000C94C90015
:100070000C9466000C9466000C94660001067306EE
:10008000EB064D077D07B507F1077308FD088B09DF
:10009000DD0911241FBECFEFD4E0DEBFCDBF12E0DB
:1000A000A0E0B1E0E0E8FCE202C005900D92A23EC3
:1000B000B107D9F724E0A2EEB2E001C01D92A73348
:1000C000B207E1F70E94C2100C943E160C94000097
:1000D000ECE7F0E01082808180648083EAE7F0E062
:1000E0001082808188688083808187608083EBE7CD
:1000F000F0E01082808180628083089590917A0080
:1001000096FD14C090917C00907C90937C0090911F
:100110007C008F71892B80937C0080917A008064B1
:1001200080937A001092090381E008958FEF08957B
:1001300080917A0086FD13C08091E402823041F004
:10014000833021F0813021F482E003C081E001C0DE
:1001500083E08093E4028091E4020C947E00089591
:1001600080917A0086FD12C080917C0080917A0097
:10017000806480937A0080917A0086FDFCCF209184
:1001800079008091780090E0922B08958FEF9FEF97
:1001900008951F920F920FB60F9211242F933F9341
:1001A0004F935F936F937F938F939F93AF93BF937F
:1001B000EF93FF93F89480917C008F7180930803F4
:1001C000209179008091780090E0922B9093070322
:1001D0008093060381E0809309037894809108035B
:1001E000823059F0833081F08130A1F48091060390
:1001F000909107030E9477020DC0809106039091B1
:1002000007030E947C0206C08091060390910703B9
:100210000E948102FF91EF91BF91AF919F918F91C9
:100220007F916F915F914F913F912F910F900FBEF2
:100230000F901F9018952D98459846984498479888
:100240002B982C9A8FE99FE00197F1F700C00000EE
:100250002C980895249A2C9825982D983D9A459885
:100260003E9A46983C9844983F9847980E941B01B4
:1002700010920A03089545982B9808956091ED0215
:100280007091EE0280E090E00E940A122AEE31E9BD
:1002900046E45DE30E94C1120E94DB11CB01089588
:1002A0006091EB027091EC0280E090E00E940A12F3
:1002B0002AEE31E946E45DE30E94C1120E94DB119F
:1002C000CB010895CF93DF931D9B3DC01C993EC089
:1002D00020910A032530E9F1263019F482E090E0FC
:1002E0004FC086B193B146B136B144FF0DC00E94F4
:1002F0003E01EC010E94500162972C9768F54297ED
:1003000070F180E290E03CC085FB882780F936FBE5
:10031000332730F9831326C093FB992790F931E0F6
:100320003927831728F4223001F180E090E028C0BB
:100330009817F0F08917F8F0992311F081111EC079
:1003400080EF90E01DC080EE90E01AC08EEE90E04D
:1003500017C081E090E014C081E290E011C082E219
:1003600090E00EC081EE90E00BC081E190E008C00B
:1003700080E190E005C082E190E002C081EF90E072
:10038000DF91CF9108950E9462018231910530F48E
:100390008031910538F4892B29F007C0429729F460
:1003A000459809C0459A81E008958DE091E00E944A
:1003B000CA0E0E943B0180E008950E9462018031D4
:1003C000910558F08231910550F0429731F40E9426
:1003D0001B0181E391E00E94260E80E0089581E0F8
:1003E00008956091E9027091EA0280E090E00E9435
:1003F0000A1226EA36E448EA5EE30E94C1120E942D
:10040000DB11CB0108950F931F93CF93DF93CDB7EB
:10041000DEB7EC970FB6F894DEBF0FBECDBF0E94DB
:100420003E019F938F938EE491E09F938F938E0173
:10043000075D1F4F1F930F930E946613C8010E9410
:10044000260E0E9450019F938F9386E591E09F9323
:100450008F93045111091F930F930E946613C801D3
:100460000E94260E0E94F1019F938F938EE591E0EA
:100470009F938F93045111091F930F930E9466134A
:10048000C8010E94260E0FB6F894DEBF0FBECDBF86
:10049000EC960FB6F894DEBF0FBECDBFDF91CF91C3
:1004A0001F910F910895CF93DF9300D000D000D01B
:1004B000CDB7DEB70E9462019A8389830E94500102
:1004C0009C838B830E94F1019E838D8320E445E011
:1004D000BE016F5F7F4F82EF0E94950D26960FB68B
:1004E000F894DEBF0FBECDBFDF91CF9108959093FA
:1004F000EE028093ED0208959093EC028093EB025C
:1005000008959093EA028093E90208958B3421E0E4
:10051000920730F086E691E00E94CA0E8AE491E0EC
:10052000909301018093000108954F925F926F9222
:100530007F928F929F92AF92BF92CF92DF92FF9263
:100540000F931F93CF93DF93CDB7DEB7A2970FB66C
:10055000F894DEBF0FBECDBFCE014F960E946E1045
:100560000E9462018C018332910528F58032910549
:1005700008F0B0C08330910568F48130910508F42B
:10058000DBC01F938F9386EA91E09F938F93CE01F8
:100590000196BAC08031910508F4C3C0823191053B
:1005A00050F1429709F0BDC066E471E0CE010196BA
:1005B0000E945F13C1C0CE0101960E3E110509F4E1
:1005C0009EC098010F3E110558F4205E310922307B
:1005D000310508F0A6C01F930F9326EB31E092C0BF
:1005E000205F31092230310508F09BC01F930F9323
:1005F00029EC31E087C08F8D98A1A9A1BAA14091C3
:10060000E5025091E6026091E7027091E802841BD6
:10061000950BA60BB70B883E9340A105B10528F0BA
:1006200080910A03833009F052C00E94F1016C01ED
:100630000E94F1018A35914070F066E771E0CE01C9
:1006400001960E945F130E943B0186E080930A039B
:10065000FF24F39401C0F12C80910A038150823071
:1006600098F5B60180E090E00E940A124B015C010F
:100670008091000190910101BC0180E090E00E9416
:100680000A122B013C0120E030E040E05FE30E94D1
:10069000F8109B01AC01C501B4010E94BC1287FD9A
:1006A00003C00E943B0149C020E030E040E05FE32E
:1006B000C301B2010E94F7109B01AC01C501B40156
:1006C0000E9464111816CCF10E94C30136C00E942A
:1006D0003B0132C01F938F9386E991E09F938F93E4
:1006E000CE0101969F938F930E9466130E943B0157
:1006F0000F900F900F900F900F900F901DC063EC14
:1007000071E013C03F932F939F938F930E946613C2
:100710000E943B010F900F900F900F900F900F9041
:1007200008C06DEE71E0CE0101960E945F130E9439
:100730003B01FF24F39401C0F12C8091F3029091CE
:10074000F40208171907F9F48F8D98A1A9A1BAA18D
:100750004091EF025091F0026091F1027091F2022B
:10076000841B950BA60BB70B893E9340A105B105E1
:1007700018F1CE010196FF2019F00E94CA0E10C098
:100780000E94260E0DC0CE010196FF2019F00E9496
:10079000CA0E02C00E94260E1093F4020093F302C8
:1007A0008F8D98A1A9A1BAA18093EF029093F00236
:1007B000A093F102B093F202A2960FB6F894DEBFB6
:1007C0000FBECDBFDF91CF911F910F91FF90DF90B2
:1007D000CF90BF90AF909F908F907F906F905F90E1
:1007E0004F90089580E0982F9295907F9093ED0020
:1007F000EEEEF0E01192E83FF105E1F78F5F863011
:1008000091F708952091ED0080E0982F9295907FC8
:100810009093ED009091EF00907C19F42093ED00FF
:1008200008958F5F863089F72093ED008FEF08954C
:100830008091EF00807C61F08091EE00982F907E97
:10084000903241F0903441F0903A41F08F71089528
:100850008FEF089580E2089580E4089580EA089576
:10086000BC0190E02091EF00492F50E02F7030E064
:100870004217530744F48091FA00FB01E40FF51F7F
:1008800080839F5FEFCF08959F92AF92BF92CF92E8
:10089000DF92EF92FF920F931F93CF93DF93882302
:1008A00009F43FC08091E2008E7731F05091E20070
:1008B0005E7756955F5F01C051E08091E3008E70D6
:1008C00031F04091E3004E7046954F5F01C041E02A
:1008D0008091E4008E70833030F09091E4009E703F
:1008E00096959F5F01C092E08091E400807781310E
:1008F00038F02091E400207722952F702F5F01C0FF
:1009000022E0692F70E0640F711D620F711D683065
:1009100071057CF061E0640F690F620F30E071E0F7
:100920000BC031E070E022E092E068E043E051E08B
:1009300003C030E071E068E080E0E82FE295E07FFE
:10094000E093ED00EEEEF0E01192E83FF105E1F703
:100950008F5F863091F7132F072F80E0A0E0B0E083
:10096000B12CD0E8AD2EEAE09E2EDD24DA941130D1
:1009700009F041C01093D8001196EFEFE50FEE0F8C
:10098000E093E200C22FC695D0E02197E5E0CC0FBE
:10099000DD1FEA95E1F7E42FF0E03197EE0FFF1F3E
:1009A000EC2BE093E300C22FD0E02197E4E0CC0FE2
:1009B000DD1FEA95E1F7E92FF0E03197EE0FFF1F19
:1009C000EC2BE160E093E400FD01C3E0F695E795D0
:1009D000CA95E1F7E093E5001092ED001092EE0069
:1009E000A092EF009092D800E091D900E2FFFCCFF6
:1009F000D092DA00B12CCC24C3943130A9F53091D7
:100A0000EE0035FF10C08091EF008F738093EF00F0
:100A10001092D8008091D90082FDFCCF81E000E0E7
:100A200030E0C12CEACF3F7119F001E030E001C0A5
:100A300031E0E091DA00E5FF11C0B11008C0F0919B
:100A4000DA00F062F093DA00BB24B39407C030916F
:100A5000DA0030623093DA0001E030E0EF7069F2E2
:100A600011E001E030E0C9CF30E0013009F05AC0B8
:100A700071119F5F993018F1283018F1693129F010
:100A80006F5F70E022E092E0F3CF503431F05F5FAF
:100A900070E022E092E068E0EBCF8091EF008F738E
:100AA0008093EF001092D8008091D90082FDFCCF96
:100AB00080E0C12C70E022E092E068E033C0963024
:100AC00058F0C92FD0E0E22FF0E03196EC17FD0787
:100AD00024F42F5F922F01C0292F492F420F762F28
:100AE000741B4FEF470F72507830D0F4E22EF12C88
:100AF000E42FF0E03196E90FF11DE701CC0FDD1F87
:100B0000CC0FDD1FCE17DF075CF0E701CC0FDD1F38
:100B1000CE0DDF1DEC17FD071CF071E031E002C0C7
:100B200071E0A6CF00E0E1E0CE1609F420CFDF911E
:100B3000CF911F910F91FF90EF90DF90CF90BF90DA
:100B4000AF909F90089581E08093D80082E08093D9
:100B5000E20084E08093E30083E18093E40081E09D
:100B600008950E94A305882341F00E94F20380911A
:100B7000D80082608093D80081E008950F931F937E
:100B8000CF93DF9300D000D0CDB7DEB7FC018181D9
:100B90008C3091F48185803609F0BEC480818295C5
:100BA000807F8093ED008091EF008F738093EF0042
:100BB0001092EE001082B0C48F010E9402048F3F99
:100BC00009F4ACC490E6D80119969C9319978C93BC
:100BD0008295807F8093ED00EEEEF0E01192E83F89
:100BE000F105E1F7D8011196EC918E2F90E0FC0110
:100BF0003197EB30F10508F08EC4E25CFF4F0C94A6
:100C00005013F8018385882391F18481829586951C
:100C100087709581F8E09F9F800D11248093F300E9
:100C2000D80113968C9113978295869587701496A8
:100C30009C91B8E09B9F800D11248093F200F801F5
:100C400082818295869587709381F8E09F9F800DC1
:100C500011248093F100D80112968C91880F880F8F
:100C6000880F8093F0008091EF00806117C0F80139
:100C700082818695869586959381F0E29F9F800D6F
:100C800011248093F300D80112968C918295880FDD
:100C9000807E8093F2008091EF008F7E8093EF0042
:100CA00080E0F8019681891760F4D8011796ED91DC
:100CB000FC911897E80FF11D90819093FA008F5FD7
:100CC000F0CF8285882321F08091F000846003C0FA
:100CD0008091F0008B7F8093F0009091EF00D8011D
:100CE00016968C9169C0F8018385882391F18481DF
:100CF0008295869587709581F8E09F9F800D1124DD
:100D00008093F300D80113968C9113978295869562
:100D1000877014969C91B8E09B9F800D112480935E
:100D2000F200F80182818295869587709381F8E0C0
:100D30009F9F800D11248093F100D80112968C9111
:100D4000880F880F880F8093F0008091EF008061FA
:100D500017C0F80182818695869586959381F0E289
:100D60009F9F800D11248093F300D80112968C91DF
:100D70008295880F807E8093F2008091EF008F7EB5
:100D80008093EF0080E0F8019681891760F4D80124
:100D90001796ED91FC911897E80FF11D90819093B3
:100DA000FA008F5FF0CF12868091F0008B7F8093E6
:100DB000F0009091EF008681892B8093EF00809165
:100DC000EF008F738093EF008091EF008064809339
:100DD000EF0080E0A8C3D8011B968C911B97882355
:100DE000A1F114968C91149782958695877015962B
:100DF0009C91B8E09B9F800D11248093F300F80133
:100E000083818295869587709481F8E09F9F800DFD
:100E100011248093F200D80112968C91129782953A
:100E20008695877013969C91B8E09B9F800D112446
:100E30008093F100F8018281880F880F880F8093DA
:100E4000F0008091EF00806119C0D80112968C915A
:100E5000129786958695869513969C91B0E29B9FF6
:100E6000800D11248093F300F80182818295880F10
:100E7000807E8093F2008091EF008F7E8093EF0060
:100E800081E0D8011A968C931A978091F0008460C3
:100E90008093F0009091EF0023CF19821A821B8279
:100EA0001C821092F7008A818295869587709B81BB
:100EB000B8E09B9F800D11248093F6008981829574
:100EC000869587709A81E8E09E9F800D112480931B
:100ED000F5008981880F880F880F8093F400909126
:100EE000EF00D80116968C91892B8093EF008091AA
:100EF000F4008B7F8093F4005CC219821A821B82FB
:100F00001C821092F7008A818295869587709B815A
:100F1000B8E09B9F800D11248093F6008981829513
:100F2000869587709A81E8E09E9F800D11248093BA
:100F3000F5008981880F880F880F8093F4009091C5
:100F4000EF00D80116968C911697892B8093EF00AD
:100F50001A961C928091F40084608093F400809132
:100F6000F0008B7F8093F00024C219821A821B82CA
:100F70001C821092F7008A818295869587709B81EA
:100F8000B8E09B9F800D11248093F60089818295A3
:100F9000869587709A81E8E09E9F800D112480934A
:100FA000F5008981880F880F880F8093F400909155
:100FB000EF00D80116968C911697892B8093EF003D
:100FC00081E01A968C938091F40084608093F40001
:100FD0008091F00084608093F0008091EF008F7D1D
:100FE000E6C1F8018385882391F1848182958695F5
:100FF00087709581F8E09F9F800D11248093F30006
:10100000D80113968C9113978295869587701496C4
:101010009C91B8E09B9F800D11248093F200F80111
:1010200082818295869587709381F8E09F9F800DDD
:1010300011248093F100D80112968C91880F880FAB
:10104000880F8093F0008091EF00806117C0F80155
:1010500082818695869586959381F0E29F9F800D8B
:1010600011248093F300D80112968C918295880FF9
:10107000807E8093F2008091EF008F7E8093EF005E
:101080008FEF9FEFDC0189839A83AB83BC838093CE
:10109000F7008A818295869587709B81B8E09B9F37
:1010A000800D11248093F600898182958695877042
:1010B0009A81E8E09E9F800D11248093F50089813C
:1010C000880F880F880F8093F4009091EF00D8016B
:1010D00016968C91892B8093EF008091F4008B7F82
:1010E0008093F4000AC2F8018385882391F18481FA
:1010F0008295869587709581F8E09F9F800D1124D9
:101100008093F300D80113968C911397829586955E
:10111000877014969C91B8E09B9F800D112480935A
:10112000F200F80182818295869587709381F8E0BC
:101130009F9F800D11248093F100D80112968C910D
:10114000880F880F880F8093F0008091EF008061F6
:1011500017C0F80182818695869586959381F0E285
:101160009F9F800D11248093F300D80112968C91DB
:101170008295880F807E8093F2008091EF008F7EB1
:101180008093EF008FEF9FEFDC0189839A83AB831D
:10119000BC838093F7008A818295869587709B81B6
:1011A000B8E09B9F800D11248093F6008981829581
:1011B000869587709A81E8E09E9F800D1124809328
:1011C000F5008981880F880F880F8093F400909133
:1011D000EF00D80116968C911697892B8093EF001B
:1011E0001A961C928091F40084608093F4008091A0
:1011F000F0008B7F8093F00080C1F8018385882305
:1012000091F184818295869587709581F8E09F9F02
:10121000800D11248093F300D80113968C911397BD
:1012200082958695877014969C91B8E09B9F800D5F
:1012300011248093F200F80182818295869587704F
:101240009381F8E09F9F800D11248093F100D801D5
:1012500012968C91880F880F880F8093F0008091F0
:10126000EF00806117C0F80182818695869586958A
:101270009381F0E29F9F800D11248093F300D801A9
:1012800012968C918295880F807E8093F2008091D7
:10129000EF008F7E8093EF008FEF9FEFDC0189835B
:1012A0009A83AB83BC838093F7008A81829586956D
:1012B00087709B81B8E09B9F800D11248093F6007E
:1012C00089818295869587709A81E8E09E9F800D3E
:1012D00011248093F5008981880F880F880F8093EF
:1012E000F4009091EF00D80116968C911697892BF7
:1012F0008093EF0081E01A968C938091F4008460D3
:101300008093F4008091F00084608093F0008091DD
:10131000EF008F7DF0C080E0F8019681891760F4BE
:10132000D8011796ED91FC911897E80FF11D908167
:101330009093FA008F5FF0CF19821A821B821C8271
:101340001092F7008A818295869587709B81F8E0DC
:101350009F9F800D11248093F60089818295869548
:1013600087709A8128E0929F800D11248093F50068
:101370008981880F880F880F8093F4009091EF0087
:10138000D80116968C911697892B8093EF0081E0F7
:101390001A968C938091F40084608093F40080917D
:1013A000F00084608093F0008091EF008062809371
:1013B000EF008091F4008E7FA3C0F801838588231D
:1013C00091F184818295869587709581F8E09F9F41
:1013D000800D11248093F300D80113968C911397FC
:1013E00082958695877014969C91B8E09B9F800D9E
:1013F00011248093F200F80182818295869587708E
:101400009381F8E09F9F800D11248093F100D80113
:1014100012968C91880F880F880F8093F00080912E
:10142000EF00806117C0F8018281869586958695C8
:101430009381F0E29F9F800D11248093F300D801E7
:1014400012968C918295880F807E8093F200809115
:10145000EF008F7E8093EF0080E0F801968189177E
:1014600060F4D8011796ED91FC911897E80FF11DE3
:1014700090819093FA008F5FF0CF8FEF9FEFDC01A8
:1014800089839A83AB83BC838093F7008A8182959A
:10149000869587709B81F8E09F9F800D1124809333
:1014A000F60089818295869587709A8128E0929FBF
:1014B000800D11248093F5008981880F880F880F93
:1014C0008093F4009091EF00D80116968C911697B6
:1014D000892B8093EF0081E01A968C938091F40021
:1014E00084608093F4008091F00084608093F00029
:1014F0008091EF0080628093EF008091F400816022
:101500008093F4008091EF008F738093EF008091BF
:10151000EF0080685CCCF80111865BCC8FE1D801CC
:1015200019968C938FEF0F900F900F900F90DF9183
:10153000CF911F910F9108951F93CF93DF93EC01EB
:101540009985992309F47BC09F3109F478C09F3FA6
:1015500009F475C088818295807F8093ED000E9498
:101560001804182F803259F020F4882309F469C038
:101570005EC0803409F451C0803A09F058C08091AF
:10158000EF008F708E838F8198850E943004809148
:10159000F00082FB882780F98A878091EF0084FF22
:1015A00029C081E08B878091F3008695869586958A
:1015B0008D838091F2009091F300869586958695B3
:1015C00020E2929F800D11248C838091F1009091F4
:1015D000F20086958695869520E2929F800D1124D3
:1015E0008B838091F0009091F10086958695869589
:1015F00020E20FC01B868091F3008295869587704C
:101600008B838091F2009091F3008295869587708C
:1016100028E0929F800D11248A8319878091EF0022
:101620008F738093EF001092EE0080E00BC019875B
:101630008091EF008F738093EF001092EE0082E0B4
:1016400001C081E0DF91CF911F910895239A2B98DB
:101650000895CF93DF93EC0185EF92E00E946E1026
:10166000D093FE02C093FD02DF91CF9108950F93B6
:101670001F93CF938C01C62F0E94F1014C2F50E095
:101680009C012B5F3F4F2417350728F02A50310962
:101690004217530738F48BEF91E0CF911F910F91D0
:1016A0000C94780E85EF92E00E946E101093FE026B
:1016B0000093FD02C093FF02CF911F910F910895F7
:1016C0000F931F93CF93DF93CDB7DEB76E970FB60F
:1016D000F894DEBF0FBECDBF8C010E943B010938DC
:1016E00083E11807C8F01F9282E38F9385E192E0AF
:1016F0009F938F938E010F5F1F4F1F930F930E9435
:101700006613C8010E94CA0E0F900F900F900F90A1
:101710000F900F9008E813E1F894B80180E090E092
:101720000E940A122DEC3CEC4CEC5FE30E94691124
:101730000E94DB11709307016093060178942B9A45
:10174000809106019091070118161906CCF32B9889
:101750000E94C3016E960FB6F894DEBF0FBECDBFD8
:10176000DF91CF911F910F9108958F929F92AF9229
:10177000BF92CF92DF92EF92FF920F931F93CF937E
:10178000DF93CDB7DEB7A2970FB6F894DEBF0FBEDA
:10179000CDBFCE014F960E946E104091F502509140
:1017A000F6026091F7027091F8024115510561054A
:1017B000710509F4A6C08F8D98A1A9A1BAA10091C5
:1017C000F9021091FA022091FB023091FC026C01A7
:1017D0007D01C01AD10AE20AF30A97018601083C8A
:1017E00011052105310568F0841B950BA60BB70B7D
:1017F000813D9740A105B10568F083E392E00E9426
:10180000780E1092F5021092F6021092F7021092E2
:10181000F80277C01091FF02112391F00E94F101AC
:10182000212F30E0A901481B590BCA0157FF03C003
:1018300091958195910906970CF063C01092FF0273
:101840000E94DD01892B29F485E492E00E94260E96
:1018500058C0CE014F960E946E10CF8CD8A0E9A040
:10186000FAA08091F5029091F602A091F702B09152
:10187000F802C81AD90AEA0AFB0A8091FD0290917F
:10188000FE020E94600BCE014F960E946E108F8C5C
:1018900098A0A9A0BAA08C189D08AE08BF08FF9216
:1018A000EF92DF92CF9280E792E09F938F938E0129
:1018B0000F5F1F4F1F930F930E946613C8010E9472
:1018C000260EBF92AF929F928F9282E892E09F93F2
:1018D0008F931F930F930E946613C8010E94260ED8
:1018E0001092F5021092F6021092F7021092F8028E
:1018F00089EF92E00E946E100FB6F894DEBF0FBE23
:10190000CDBFA2960FB6F894DEBF0FBECDBFDF915C
:10191000CF911F910F91FF90EF90DF90CF90BF90EC
:10192000AF909F908F9008950F931F93FC01DB0160
:101930008181829586958770408198E0499FA001BA
:101940001124482B8A01550F220B330B0D931D9345
:101950002D933C9313978181482F4C7F98E0499FAA
:10196000A001112483708C60482B052E000C660B9F
:10197000770B762F652F542F4427402B512B622B4A
:10198000732B4D935D936D937C9313978281682B9A
:101990004D935D936D937C9313978381782B4D9337
:1019A0005D936D937C9313971F910F910895E3E2DC
:1019B000F3E0119283E0EB32F807D9F710921903A4
:1019C00010921A0310921B0310921C0381E0809363
:1019D00022031092210388E080931D0385E0809309
:1019E000180387E193E00E94BE058111FACF0895A4
:1019F0003A9A42983B98439880E00E94B105E7E10B
:101A0000F3E083E293E09087878311860E94D70CEE
:101A1000EBE0F3E08BE293E09087878311860895F3
:101A200087E193E00E949C0A882331F08130F1F035
:101A30008CE08093180313C080911903803659F409
:101A4000E0910401F091050160911D0380911E0356
:101A500090911F030995109220030C94D70C87E1F5
:101A600093E00E94BE058111FACFF5CF0895CF9380
:101A7000DF93EC014C8550E0BC016C5F7F4F8BE243
:101A800093E00E94561388819981AA81BB8180933B
:101A90000D0390930E03A0930F03B093100381E006
:101AA00080931603109215038C858093110382E0B6
:101AB00080930C038BE093E00E94BE058111FACF66
:101AC0008BE093E00E949C0A8130D1F381E0DF91AA
:101AD000CF9108958091000390910103981701F12F
:101AE0002DE0829FC00111248D5C9C4F0E94370D18
:101AF00018165CF4809100038F5F843119F0809395
:101B0000000308951092000308958CE080930C0365
:101B10008BE093E00E94BE058111FACF109214036E
:101B200008950E94100D0C946A0DFF920F931F935D
:101B3000CF93DF93CDB7DEB762970FB6F894DEBFD1
:101B40000FBECDBFF82E8B011E862F8780E6888BB7
:101B5000198ABE016F5F7F4FCE010E964A8B0E949D
:101B6000940C4A89483008F047E081E0840F8D8763
:101B7000FD8250E0B801CE0106960E945613809176
:101B800001039DE0989FD0011124AD5CBC4FFE0184
:101B9000319601900D929A95E1F78F5F843119F09B
:101BA0008093010302C01092010380910103909180
:101BB0000003891308C08F5F843119F080930003FC
:101BC00002C01092000381E062960FB6F894DEBF67
:101BD0000FBECDBFDF91CF911F910F91FF90089560
:101BE000BF92CF92DF92EF92FF920F931F93CF930A
:101BF000DF93082F7B01EB0109900020E9F7219783
:101C0000C61BD70BBC2E10E06E01DD241B15A0F403
:101C1000212F30E0C601821B930BB701620F731FA7
:101C200020E4089714F047E002C04C2F411B802F9E
:101C30000E94950D195FEACFDF91CF911F910F910F
:101C4000FF90EF90DF90CF90BF900895CF92DF92FA
:101C5000EF92FF920F931F93CF93DF93CDB7DEB731
:101C6000BC01EDB6FEB6FC0101900020E9F731970A
:101C70008F01081B190B1127FC01E00FF11F319791
:101C800080818A3051F1C80102962DB73EB7281BDA
:101C9000390B0FB6F8943EBF0FBE2DBF8DB79EB760
:101CA00001966C01A8010E945613F601E00FF11F86
:101CB0008AE080831182B6018EE30E94F00D0FB698
:101CC000F894FEBE0FBEEDBEDF91CF911F910F9134
:101CD000FF90EF90DF90CF9008958EE3DF91CF914A
:101CE0001F910F91FF90EF90DF90CF900C94F00D2B
:101CF000CF92DF92EF92FF920F931F93CF93DF93D8
:101D0000CDB7DEB7BC01EDB6FEB6FC0101900020F8
:101D1000E9F731978F01081B190B1127FC01E00F20
:101D2000F11F319780818A3051F1C80102962DB799
:101D30003EB7281B390B0FB6F8943EBF0FBE2DBF20
:101D40008DB79EB701966C01A8010E945613F6014B
:101D5000E00FF11F8AE080831182B60182E20E94C7
:101D6000F00D0FB6F894FEBE0FBEEDBEDF91CF9121
:101D70001F910F91FF90EF90DF90CF90089582E236
:101D8000DF91CF911F910F91FF90EF90DF90CF9057
:101D90000C94F00DCF92DF92EF92FF920F931F936E
:101DA000CF93DF93CDB7DEB7BC01EDB6FEB6FC0135
:101DB00001900020E9F731978F01081B190B1127BB
:101DC000FC01E00FF11F319780818A3051F1C80189
:101DD00002962DB73EB7281B390B0FB6F8943EBFBD
:101DE0000FBE2DBF8DB79EB701966C01A8010E9452
:101DF0005613F601E00FF11F8AE080831182B601CD
:101E000081E20E94F00D0FB6F894FEBE0FBEEDBE4B
:101E1000DF91CF911F910F91FF90EF90DF90CF90C6
:101E2000089581E2DF91CF911F910F91FF90EF9084
:101E3000DF90CF900C94F00D0F931F93CF93DF930F
:101E4000CDB7DEB72E970FB6F894DEBF0FBECDBF6D
:101E50009C011E861D8685E0E8E0F1E0DE01189613
:101E600001900D928A95E1F7F9019081903309F480
:101E70008CC0A8F4923009F488C0933059F19130A5
:101E800009F07FC085EE92E00E946E1020E440E0F1
:101E9000BE01685F7F4F81EF0E94950D76C0903440
:101EA00009F46CC018F4913379F16BC0913409F4E2
:101EB00040C09D3609F065C08AE992E00E94260E76
:101EC00083E080930A0380ED9FE090930501809367
:101ED00004015BC02181828190E0982F8827820FC6
:101EE000911D9E878D87633029F48D859E850E9484
:101EF000290B4BC0643009F048C08D859E856381F5
:101F000070E00E94370B41C0633041F4218182812F
:101F100090E0982F8827820F911D04C06230A9F5A8
:101F2000818190E09E878D878D859E850E948602A7
:101F30002CC01F9282E08F931F921F9283E992E040
:101F40009F938F938E010F5F1F4F1F930F930E94DC
:101F50006613F80101900020E9F731974E2F401BDE
:101F6000483008F047E020E4B80183EF0E94950D67
:101F70000FB6F894DEBF0FBECDBF07C00E9453025C
:101F800004C081EA92E00E94CA0E2E960FB6F89421
:101F9000DEBF0FBECDBFDF91CF911F910F9108958E
:101FA0000F931F93CF93DF93CDB7DEB728970FB66C
:101FB000F894DEBF0FBECDBFFC0190819337E9F5E9
:101FC000319681E020E030E07AE08617D8F49191F4
:101FD00040ED490F4A3088F4729FA001739F500D65
:101FE00011249A0120533109290F311D203197E224
:101FF000390730F089EB92E04BC082EC92E048C0A8
:102000008F5FE3CF30930301209302013F932F931F
:102010008AEC92E09F938F938E010F5F1F4F1F9367
:102020000F930E946613C8010E94260E0F900F9016
:102030000F900F900F900F902DC0903269F4809107
:10204000020190910301009711F00E94290B80ED8D
:1020500092E00E94260E1EC0953611F481E008C061
:10206000973719F410920A0315C0913721F484E0D0
:1020700080930A030FC0913649F410920A038CE151
:102080009FE0909305018093040104C088ED92E0E5
:102090000E94CA0E28960FB6F894DEBF0FBECDBFC1
:1020A000DF91CF911F910F91089514BC15BC85B598
:1020B000816085BD81E080936E000895F894409121
:1020C0000203509103036091040370910503FC0126
:1020D000408351836283738378940895CF93DF9311
:1020E000EC010E945E1088819981AA81BB81BC01AC
:1020F000CD0124E0660F771F881F991F2A95D1F71D
:1021000028EE33E040E050E00E942E13288339830C
:102110004A835B83DF91CF9108951F920F920FB690
:102120000F9211248F939F93AF93BF9380910203DB
:1021300090910303A0910403B09105030196A11DA2
:10214000B11D8093020390930303A0930403B09303
:1021500005038091060190910701181619064CF4A9
:102160008091060190910701019790930701809358
:102170000601BF91AF919F918F910F900FBE0F906D
:102180001F90189514B817B81AB815B818B81BB816
:1021900078940E94F80C0E9468000E942A010E9414
:1021A000260B0E9455100E94910D0E9498000E94DB
:1021B000B50B0E949502C5E60E94910D25E32A9574
:1021C000F1F70000C150C1F78091E2029091E30263
:1021D00001969093E3028093E202883E934018F3C5
:1021E0000E9403021092E3021092E202DCCF5058E8
:1021F000BB27AA270E940F110C9482120E9474120E
:1022000038F00E947B1220F039F49F3F19F426F435
:102210000C9471120EF4E095E7FB0C946B12E92F0D
:102220000E94931258F3BA17620773078407950741
:1022300020F079F4A6F50C94B5120EF4E0950B2E6F
:10224000BA2FA02D0B01B90190010C01CA01A00108
:102250001124FF27591B99F0593F50F4503E68F163
:102260001A16F040A22F232F342F4427585FF3CFA4
:10227000469537952795A795F0405395C9F77EF475
:102280001F16BA0B620B730B840BBAF09150A1F0BE
:10229000FF0FBB1F661F771F881FC2F70EC0BA0F44
:1022A000621F731F841F48F4879577956795B795CC
:1022B000F7959E3F08F0B0CF9395880F08F09927C7
:1022C000EE0F9795879508950E94471208F481E0D4
:1022D00008950E947D110C9482120E947B1258F086
:1022E0000E94741240F029F45F3F29F00C946B12A5
:1022F00051110C94B6120C9471120E94931268F34F
:102300009923B1F3552391F3951B550BBB27AA27AE
:1023100062177307840738F09F5F5F4F220F331FE8
:10232000441FAA1FA9F335D00E2E3AF0E0E832D0B0
:1023300091505040E695001CCAF72BD0FE2F29D0B3
:10234000660F771F881FBB1F261737074807AB0785
:10235000B0E809F0BB0B802DBF01FF2793585F4FFA
:102360003AF09E3F510578F00C946B120C94B61223
:102370005F3FE4F3983ED4F3869577956795B795DC
:10238000F7959F5FC9F7880F911D9695879597F9E7
:102390000895E1E0660F771F881FBB1F6217730760
:1023A0008407BA0720F0621B730B840BBA0BEE1F75
:1023B00088F7E09508950E949B1288F09F5798F047
:1023C000B92F9927B751B0F0E1F0660F771F881F3A
:1023D000991F1AF0BA95C9F714C0B13091F00E9454
:1023E000B512B1E008950C94B512672F782F8827A5
:1023F000B85F39F0B93FCCF3869577956795B3957B
:10240000D9F73EF490958095709561957F4F8F4FE9
:102410009F4F0895E89409C097FB3EF490958095EE
:10242000709561957F4F8F4F9F4F9923A9F0F92F9A
:1024300096E9BB279395F695879577956795B79518
:10244000F111F8CFFAF4BB0F11F460FF1BC06F5FFE
:102450007F4F8F4F9F4F16C0882311F096E911C010
:10246000772321F09EE8872F762F05C0662371F031
:1024700096E8862F70E060E02AF09A95660F771F45
:10248000881FDAF7880F9695879597F90895990F21
:102490000008550FAA0BE0E8FEEF16161706E8072E
:1024A000F907C0F012161306E407F50798F0621B4F
:1024B000730B840B950B39F40A2661F0232B242B24
:1024C000252B21F408950A2609F4A140A6958FEF43
:1024D000811D811D089597F99F6780E870E060E095
:1024E00008959FEF80EC089500240A9416161706AD
:1024F00018060906089500240A94121613061406F5
:1025000005060895092E0394000C11F4882352F057
:10251000BB0F40F4BF2B11F460FF04C06F5F7F4F0F
:102520008F4F9F4F089557FD9058440F551F59F0F6
:102530005F3F71F04795880F97FB991F61F09F3FB0
:1025400079F087950895121613061406551FF2CFD9
:102550004695F1DF08C0161617061806991FF1CF29
:1025600086957105610508940895E894BB27662750
:102570007727CB0197F908950E94471208F48FEF4F
:1025800008950E94D4120C9482120E94741238F0A2
:102590000E947B1220F0952311F00C946B120C9486
:1025A000711211240C94B6120E94931270F3959F2D
:1025B000C1F3950F50E0551F629FF001729FBB273A
:1025C000F00DB11D639FAA27F00DB11DAA1F649FD6
:1025D0006627B00DA11D661F829F2227B00DA11D89
:1025E000621F739FB00DA11D621F839FA00D611D0F
:1025F000221F749F3327A00D611D231F849F600D30
:10260000211D822F762F6A2F11249F5750409AF058
:10261000F1F088234AF0EE0FFF1FBB1F661F771FE4
:10262000881F91505040A9F79E3F510580F00C94AF
:102630006B120C94B6125F3FE4F3983ED4F3869588
:1026400077956795B795F795E7959F5FC1F7FE2B4F
:10265000880F911D9695879597F90895A1E21A2EF6
:10266000AA1BBB1BFD010DC0AA1FBB1FEE1FFF1F36
:10267000A217B307E407F50720F0A21BB30BE40B86
:10268000F50B661F771F881F991F1A9469F76095CD
:102690007095809590959B01AC01BD01CF01089587
:1026A000EE0FFF1F0590F491E02D0994FB01DC0172
:1026B00002C001900D9241505040D8F70895FB019F
:1026C000DC0101900D920020E1F70895AEE0B0E04A
:1026D000ECE6F3E10C9415160D891E8986E08C83D7
:1026E0001A8309838FEF9FE79E838D83AE01475E38
:1026F0005F4F6F89788DCE0101960E9489132F81DB
:102700003885F801E20FF31F10822E96E4E00C9456
:102710003116ACE0B0E0EFE8F3E10C9407167C0171
:102720006B018A01FC0117821682838181FFBDC182
:10273000CE0101964C01F7019381F60193FD85913D
:1027400093FF81916F01882309F4ABC1853239F47D
:1027500093FD859193FF81916F01853229F4B70133
:1027600090E00E947115E7CF512C312C20E02032EF
:10277000A0F48B3269F030F4803259F0833269F47E
:1027800020612CC08D3239F0803339F4216026C0AD
:102790002260246023C0286021C027FD27C030EDBF
:1027A000380F3A3078F426FF06C0FAE05F9E300D0D
:1027B0001124532E13C08AE0389E300D1124332E7D
:1027C00020620CC08E3221F426FD6BC1206406C04D
:1027D0008C3611F4206802C0883641F4F60193FD6E
:1027E000859193FF81916F018111C1CF982F9F7DBA
:1027F0009554933028F40C5F1F4FFFE3F9830DC00D
:10280000833631F0833771F0833509F05BC022C025
:10281000F801808189830E5F1F4F44244394512C1B
:10282000540115C03801F2E06F0E711CF801A08050
:10283000B18026FF03C0652D70E002C06FEF7FEF0F
:10284000C5012C870E9466152C0183012C852F77EA
:10285000222E17C03801F2E06F0E711CF801A08023
:10286000B18026FF03C0652D70E002C06FEF7FEFDF
:10287000C5012C870E945B152C012C852068222E17
:10288000830123FC1BC0832D90E048165906B0F449
:10289000B70180E290E00E9471153A94F4CFF501FF
:1028A00027FC859127FE81915F01B70190E00E948E
:1028B000711531103A94F1E04F1A51084114510446
:1028C00071F7E5C0843611F0893639F5F80127FF34
:1028D00007C060817181828193810C5F1F4F08C0A6
:1028E00060817181072E000C880B990B0E5F1F4FC2
:1028F0002F76722E97FF09C09095809570956195FF
:102900007F4F8F4F9F4F2068722E2AE030E0A40146
:102910000E94A915A82EA81844C0853729F42F7E37
:10292000B22E2AE030E025C0F22FF97FBF2E8F367D
:10293000C1F018F4883579F0B4C0803719F08837C1
:1029400021F0AFC02F2F2061B22EB4FE0DC08B2D11
:102950008460B82E09C024FF0AC09F2F9660B92E4C
:1029600006C028E030E005C020E130E002C020E1F0
:1029700032E0F801B7FE07C06081718182819381E6
:102980000C5F1F4F06C06081718180E090E00E5F98
:102990001F4FA4010E94A915A82EA818FB2DFF7790
:1029A0007F2E76FE0BC0372D3E7FA51450F474FEAB
:1029B0000AC072FC08C0372D3E7E05C0BA2C372DE8
:1029C00003C0BA2C01C0B52C34FF0DC0FE01EA0DC6
:1029D000F11D8081803311F4397E09C032FF06C0B9
:1029E000B394B39404C0832F867809F0B39433FD75
:1029F00013C030FF06C05A2CB31418F4530C5B18E4
:102A0000B32CB31468F4B70180E290E03C870E94D5
:102A10007115B3943C85F5CFB31410F43B1801C085
:102A2000312C34FF12C0B70180E390E03C870E9454
:102A300071153C8532FF17C031FD03C088E790E077
:102A400002C088E590E0B7010CC0832F867859F06A
:102A500031FF02C08BE201C080E237FD8DE2B70199
:102A600090E00E947115A51438F4B70180E390E05E
:102A70000E9471155A94F7CFAA94F401EA0DF11D42
:102A80008081B70190E00E947115A110F5CF33202D
:102A900009F451CEB70180E290E00E9471153A949A
:102AA000F6CFF7018681978102C08FEF9FEF2C96BA
:102AB000E2E10C942316FC01059061507040011076
:102AC000D8F7809590958E0F9F1F0895FC01615057
:102AD000704001900110D8F7809590958E0F9F1F40
:102AE00008950F931F93CF93DF93FB01238121FD63
:102AF00003C08FEF9FEF28C022FF16C04681578189
:102B0000248135814217530744F4A081B1819D018E
:102B10002F5F3F4F318320838C93268137812F5F36
:102B20003F4F3783268310C0EB01092F182F0084F5
:102B3000F185E02D0995892BE1F68E819F81019623
:102B40009F838E83812F902FDF91CF911F910F91C3
:102B50000895FA01AA27283051F1203181F1E89433
:102B60006F936E7F6E5F7F4F8F4F9F4FAF4FB1E080
:102B70003ED0B4E03CD0670F781F891F9A1FA11D7B
:102B8000680F791F8A1F911DA11D6A0F711D811D7C
:102B9000911DA11D20D009F468943F912AE0269F41
:102BA00011243019305D3193DEF6CF010895462FA0
:102BB0004770405D4193B3E00FD0C9F7F6CF462F81
:102BC0004F70405D4A3318F0495D31FD40524193EA
:102BD00002D0A9F7EACFB4E0A695979587957795A7
:102BE0006795BA95C9F700976105710508959B012E
:102BF000AC010A2E06945795479537952795BA95B7
:102C0000C9F7620F731F841F951FA01D08952F928F
:102C10003F924F925F926F927F928F929F92AF926C
:102C2000BF92CF92DF92EF92FF920F931F93CF93B9
:102C3000DF93CDB7DEB7CA1BDB0B0FB6F894DEBF50
:102C40000FBECDBF09942A88398848885F846E8476
:102C50007D848C849B84AA84B984C884DF80EE80C0
:102C6000FD800C811B81AA81B981CE0FD11D0FB6C9
:102C7000F894DEBF0FBECDBFED010895F894FFCFED
:102C80004A01C8001C0FFFFF0102030405426F6FD9
:102C900073746572206E6F74204163746976617419
:102CA00065642C20636865636B205374617465737D
:102CB0000041736B656420666F72204B69636B2003
:102CC0007768696C65204B69636B696E67004C3A85
:102CD000202564205600423A202564205600433ABD
:102CE000202564205600566F6C7461676520746FF0
:102CF0002068696768004F766572766F6C746167EB
:102D0000652E20536F667477617265206465746503
:102D1000637465642E00566F6C746167653A203089
:102D20007825303258003E3E4572726F723A20303C
:102D30007825303258003E3E45533A2030782530D1
:102D40003258005265736574005374617465207362
:102D5000686F756C64206E6F7420626520726561A7
:102D6000636865643A2030782530325800556E6BC0
:102D70006E6F776E2053746174650043616E6E6F81
:102D800074207265616368207468697320766F6C63
:102D900074616765004B69636B74696D6520746F5E
:102DA000206C6F6E67212053657420746F2025643A
:102DB0006D73004B69636B206A6F62206578706980
:102DC0007265642E0043616E206E6F74206B6963C0
:102DD0006B2E20426F6F7374657220697320696E69
:102DE00020696E76616C69642073746174652E006D
:102DF0004B69636B64656C61793A20256C75206D55
:102E000073004B69636B74696D653A20256C75209E
:102E10006D73007625752E2575006D616E75616C7C
:102E200000436F6D6D616E64206E6F7420696D700C
:102E30006C656D656E746564004552522044415462
:102E40004500455252204E414E006E7425640A00E2
:102E500052656C656173650045525220494D504C76
:022E6000000070
:00000001FF
